:100000000C9472020C94B9020C94B9020C94B902CB
:100010000C94B9020C94B9020C94B9020C94B90274
:100020000C94B9020C94B9020C9439220C940C2350
:100030000C9456190C94B9020C94B9020C94B902A0
:100040000C94B9020C94B9020C94B9020C94B90244
:100050000C94B9020C94B7190C94B9020C94B9021F
:100060000C94B9020C94B9020C94B9020C94B90224
:100070000C94B9020C94B9020C94B9020C94B90214
:100080000C94B9020C94B9020C94B9020C94B90204
:100090000C94B9020C94B9020C94B9020C94B902F4
:1000A0000C94B9020C94B9020C94B9020400160025
:1000B000015102511E001F00010003511E021F02C8
:1000C000035101003470357001000100010001008E
:1000D0000100010001000100010001000100010018
:1000E0000100010001000100010001000100010008
:1000F00001000100010001000100010001000100F8
:1001000001000100010001000100010001000100E7
:1001100001000100010001000100010001000100D7
:1001200001000100010001000100010064321464BB
:100130003214783C1E1E140A050000000001010163
:100140000202030405050607090A0B0C0E0F111223
:10015000141517191B1D1F212325282A2C2F313474
:1001600036393B3E414346494C4F5255585A5D61E2
:1001700064676A6D707376797C7F8386898C8F92D1
:1001800095989B9EA2A5A7AAADB0B3B6B9BCBEC1B7
:10019000C4C6C9CBCED0D3D5D7DADCDEE0E2E4E604
:1001A000E8EAEBEDEEF0F1F3F4F5F6F8F9FAFAFB24
:1001B000FCFDFDFEFEFEFFFFFFFFFFFFFFFEFEFE5C
:1001C000FDFDFCFBFAFAF9F8F6F5F4F3F1F0EEEDCB
:1001D000EBEAE8E6E4E2E0DEDCDAD7D5D3D0CECB5A
:1001E000C9C6C4C1BEBCB9B6B3B0ADAAA7A5A29ECC
:1001F0009B9895928F8C898683807C797673706DBD
:100200006A6764615D5A5855524F4C494643413EB6
:100210003B393634312F2C2A282523211F1D1B1949
:1002200017151412110F0E0C0B0A09070605050409
:1002300003020201010100000000000000000101B2
:100240000101010101010102020202020202020295
:100250000303030303030303040404040404050564
:100260000505050606060606070707070808080825
:100270000909090A0A0A0A0B0B0B0C0C0C0D0D0DCF
:100280000E0E0F0F0F101011111112121313141460
:10029000151516161717181819191A1A1B1C1C1DD4
:1002A0001D1E1F1F2020212222232425252627272B
:1002B00028292A2B2B2C2D2E2F2F30313233343559
:1002C00036363738393A3B3C3D3E3F404142434465
:1002D000464748494A4B4C4D4F505152535556573B
:1002E000585A5B5C5E5F606263646667696A6C6DE6
:1002F0006E707173747678797B7C7E80818384865E
:10030000888A8B8D8F91929496989A9B9D9FA1A39A
:10031000A5A7A9ABADAFB1B3B5B7B9BBBDBFC1C49C
:10032000C6C8CACCCFD1D3D6D8DADCDFE1E4E6E860
:10033000EBEDF0F2F5F7FAFCFF12036B00650079C4
:100340000062006F0061007200640000001603711B
:10035000006D006B006200750069006C0064006550
:1003600000720000000403090409026D000401008A
:10037000A0FA090400000103010100092111010094
:10038000012240000705810308000A090401000159
:1003900003010200092111010001224D000705821D
:1003A0000308000A090402000103000000092111EA
:1003B0000100012236000705830308000A0904032F
:1003C000000103000000092111010001223900078A
:1003D0000584032000011201100100000008EDFE59
:1003E000606001000102000105010906A101050785
:1003F00019E029E715002501950875018102050816
:100400001901290595057501910295017503910161
:100410000507190029F71500250195F875018102D6
:10042000C005010980A10185021601002603001AFA
:1004300081002A8300751095018100C0050C090117
:10044000A1018503160100269C021A01002A9C02C4
:10045000751095018100C005010902A1010901A1E2
:10046000000509190129051500250195057501816A
:1004700002950175038101050109300931158125B6
:100480007F95027508810609381581257F950175CC
:10049000088106050C0A38021581257F950175082B
:1004A0008106C0C005010906A101050719E029E779
:1004B00015002501950875018102950175088101D6
:1004C0000508190129059505750191029501750326
:1004D00091010507190029FF150026FF00950675F3
:1004E000088100C011241FBECFEFDAE0DEBFCDBF10
:1004F00004B603FE27C08091220290912302A091AE
:100500002402B09125028730904BA740B04BD1F424
:1005100010922202109223021092240210922502BD
:1005200014BE84B7877F84BF0FB6F894A8958091D6
:100530006000886180936000109260000FBEE0E070
:10054000F8E3099511E0A0E0B1E0E8E2FDE402C0C3
:1005500005900D92AA32B107D9F722E0AAE2B1E0E4
:1005600001C01D92A232B207E1F70E948D1F0C94C8
:100570005D260C94000090E080E0089508950895B1
:1005800081E00895089581E008950C94C0020E94CE
:10059000A3112FEF84E39CE0215080409040E1F7CD
:1005A00000C000000C94DA19EF92FF920F931F9392
:1005B000CF93DF937C01DC010D911C911197809109
:1005C0006301811143C012968C918823D1F1C80137
:1005D0000E942417C82F682FC8010E94D116B801A5
:1005E0008C2F0E943F04EC01B7010E94C5028823B2
:1005F00009F468C0B701CE010E944506882309F4BA
:1006000061C0CE33B0E7DB0770F4C433E0E7DE0748
:1006100010F5C130F0E7DF0709F45CC050F5C115F3
:10062000D04709F44AC081E080932C0180932D01CA
:10063000C701DF91CF911F910F91FF90EF900C9424
:10064000C302C8010E94FD16C82FC9CFC8010E946D
:100650002417B801C6CFFE01E553F047D701129623
:100660008C91E930F10508F040C0E15AF94D0C9445
:100670000F26CE01825090474397A8F6F70182815A
:100680008823B1F20E94E618811102C00E94C518A9
:100690000E94031990E09093140280931302FE01CC
:1006A000E350F047809113028160E231F10508F0D8
:1006B00047C0E859F94D0C940F26F701828181114A
:1006C0000E94C70280E0DF91CF911F910F91FF90B0
:1006D000EF900895D70112968C91882399F3809119
:1006E000CE0181608093CE01EDCF882359F30E9423
:1006F000230AE8CF882331F30E94190AE3CF882325
:1007000009F30E94F608DECF8823E1F20E940E0969
:10071000D9CF8823B9F20E942D09D4CF882391F232
:100720000E944509CFCF882369F20E945D09CACF94
:10073000882341F20E947509C5CF8091130282601F
:1007400080931302809113020E9407190E94A31143
:10075000B9CF809113028460F3CF80911302886037
:10076000EFCF809113028061EBCF80911302806202
:10077000E7CF809113028064E3CF809113028068F9
:10078000DFCF809113028C60DBCF809113028E7FCC
:10079000D7CF809113028D7FD3CF809113028B7FAF
:1007A000CFCF80911302877FCBCF809113028F7EB2
:1007B000C7CF809113028F7DC3CF809113028F7BAF
:1007C000BFCF809113028F77BBCF80911302837FBD
:1007D000B7CF90911302892F97FB87F98058B0CF3C
:1007E000882361F010922C010E94861990932B01AE
:1007F00080932A0182E00E94080F64CF80912C012F
:1008000081110FC080912A0190912B010E949219B1
:10081000883C910530F486E20E94DD0D86E20E945C
:10082000B90E82E00E940F0F4DCF882351F0109235
:100830002D010E94861990932B0180932A0180E25A
:10084000DACF80912D0181110FC080912A01909102
:100850002B010E949219883C910530F487E20E9496
:10086000DD0D87E20E94B90E80E2DCCF0C94940685
:100870000C9496060C94C2020C943A040895E82F46
:10088000F0E0EE0FFF1FE70FF11DEE0FFF1FE60F69
:10089000F11DEE0FFF1FE455FF4F859194910895D0
:1008A000FC01EE0FFF1FE45DFE4F859194910895CA
:1008B0000E943F040E94C9059C01811540E49407F1
:1008C00008F097C0211580E3380708F0FAC0203EF1
:1008D000310508F074C0203C310508F0E5C0283A25
:1008E000310588F4253A310508F0E2C021303105A0
:1008F00009F477C0C9010497813A910508F471C0E1
:1009000030E020E06EC0C901885A91094597C0F7D0
:10091000283A310509F4FEC0293A310509F4FDC031
:100920002A3A310509F4FCC02B3A310509F4FBC021
:100930002C3A310509F4FAC02B3B310509F4F9C012
:100940002C3B310509F4F8C02D3A310509F4F7C004
:10095000203B310509F4F6C02E3A310509F4F5C003
:100960002F3A310509F4F4C0213B310509F4F3C0F5
:10097000223B310509F4F2C0233B310509F4F1C0F3
:10098000243B310509F4F0C0253B310509F4EFC0E3
:10099000263B310509F4EEC0273B310509F4EDC0D3
:1009A000283B310509F4ECC0293B310509F4EBC0C3
:1009B0002A3B310509F4EAC020E034E412C02115D5
:1009C00090E2390780F42F3F310509F050F4283EBA
:1009D000310538F0C901805F91093065409708F012
:1009E0008FCFC9010895C9019F700E9450049C01D6
:1009F000F8CF8115944508F041C0211583E53807EB
:100A000008F06AC0211592E5390738F5211541E54E
:100A1000340708F05CC0211580E5380708F454C09D
:100A2000C90134E0969587953A95E1F78370422F96
:100A300046954695437090E2499FA0011124582B9A
:100A4000822F837021E030E002C0220F331F8A958D
:100A5000E2F7242B352B3C68C4CFC901837099275A
:100A600041E050E002C0440F551F8A95E2F72695F9
:100A7000269580E2289F90011124EBCF211596E561
:100A8000390748F4922F882721153545C8F59C0170
:100A9000246F306AA6CFC90190563F7081159041EE
:100AA00008F02ECF30629DCFC901805C91099DCFA7
:100AB000253A310549F1263A310549F522E830E475
:100AC00090CF3327306C8DCF3F70306A8ACF322F72
:100AD0002227216F306A85CFC9018370992741E0B1
:100AE00050E002C0440F551F8A95E2F726952695DF
:100AF00080E2289F90011124242B352B3A6871CF76
:100B000088279F719C01CECF21E830E46ACF23E88B
:100B100030E467CF22EE34E464CF29EE34E461CFD1
:100B20002AEE34E45ECF25EB34E45BCF26EB34E4ED
:100B300058CF23EB34E455CF24EB34E452CF27EBEA
:100B400034E44FCF2CEC34E44CCF2DEC34E449CFDB
:100B500023E835E446CF2AE835E443CF22E935E4FB
:100B600040CF24E935E43DCF21E236E43ACF23E219
:100B700036E437CF24E236E434CF25E236E431CF11
:100B800026E236E42ECF27E236E42BCF2AE236E403
:100B900028CF803E910581F1C8F48133910509F495
:100BA00062C048F48932910509F456C08A32910531
:100BB00009F460C0089589339105B9F08238910530
:100BC000A1F08533910509F440C00895863E910552
:100BD00061F138F4823E9105B1F0833E9105E1F078
:100BE0000895873E910551F10895209113022370D5
:100BF000D9F080EE90E008952091130220FF14C0F8
:100C000089E390E008952091130222FF0DC024FD96
:100C100009C083EE90E008952091130222FD31C0B7
:100C200024FF02C090E080E008952091130223FF8A
:100C3000FBCF24FDF7CF87EE90E0089520911302BB
:100C400023FFEECF86EE90E008952091130225FF5A
:100C5000EBCF89E290E008952091130225FFE4CFC5
:100C600085E390E008952091130226FFDDCF8AE20C
:100C700090E008952091130226FFD6CF81E390E003
:100C8000089582EE90E0089508950F931F93CF93F7
:100C90008C01FB018281811106C0C1E08C2FCF91B4
:100CA0001F910F910895C0913B01C11125C00531DD
:100CB000104799F70E94440681E080933B010E940F
:100CC000861990933A018093390110922E01109267
:100CD000300110922F0110923201109231011092C6
:100CE00034011092330110923601109235011092A6
:100CF000380110923701D2CF8091390190913A0199
:100D00000E949219883C910540F680912E01E82FAF
:100D1000F0E0EE0FFF1FE15DFE4F118300838F5F58
:100D200080932E01C0E0BACF0C94BE020C94BF0297
:100D300085B7806885BF85B7806885BF25982D9A5F
:100D400026982E9A27982F9A23982B9AAEE3B1E0F3
:100D50001C92ECE3F1E0108211961C9211820C942B
:100D60003604BF92CF92DF92EF92FF920F931F93C0
:100D7000CF93DF938CE3C82E81E0D82EC4E1D1E07D
:100D80000EE311E0EE24E394F12CBB24B394F601BE
:100D900041916F01DF011E928991E82FE295EF707A
:100DA000F0E091A18F70970101C0220F8A95EAF7B8
:100DB000892F822B81A392A1522F5095952392A324
:100DC00080EA8A95F1F783B18095881F8827881F6C
:100DD0009C91892B8C931B993AC092E0892B8C9320
:100DE00081A1852381A382A1282B22A38C9148175E
:100DF00041F0B09240010E94861990934201809385
:100E000041010C151D0519F680914001882391F0D0
:100E100080914101909142010E949219069750F0F1
:100E200080913C0180933E0180913D0180933F0180
:100E3000109240010E94380481E0DF91CF911F9110
:100E40000F91FF90EF90DF90CF90BF90089590E0CA
:100E5000C5CFE82FF0E0E25CFE4F80810895089551
:100E60009C01CB0165B1542F5095562365B1462B9B
:100E70006FB7F894820F931F2817390711F46FBFCB
:100E80000895F90171919F01E8E045B9000000C0A3
:100E900077FF55B9770F000000C000C000C055B9FA
:100EA00000C0EA9591F7E8CFFC0194B1942B94B976
:100EB0009B01220F331F620F731FCF010E94300767
:100EC00087EC90E00197F1F700C00000089541E041
:100ED0000C945407AF92BF92CF92DF92EF92FF92A1
:100EE0000F931F93CF93DF937C01E901842F242F6D
:100EF000662309F43FC0C42ED12C8FEF90E0861BEF
:100F00009109489F8001499F100D1124212F812FA5
:100F10009927C81AD90A9CE3A92EB12CC701B5019B
:100F20000E94E725FB01BC01C69EC001C79E900D33
:100F3000D69E900D1124B5010E94E725E330F105FE
:100F400009F443C080EFE816F10468F4E130F105DC
:100F500091F13297A1F18CE3E816F10440F180E0C1
:100F600020E040E007C0E430F10599F1842F861BB2
:100F70003597A9F7E42FF0E0E75CFD4F4491E22FAD
:100F8000F0E0E75CFD4F9491E82FF0E0E75CFD4F67
:100F9000E49149839883EA83DF91CF911F910F9168
:100FA000FF90EF90DF90CF90BF90AF900895812F8A
:100FB000262F210FDFCF812F242F461BDBCF862F3B
:100FC000810FE42F412F2E2FD5CFE42FE61B842F46
:100FD000F9CF842F462F410FCDCF88E090E00C94BD
:100FE0001D26AB01BC0188E090E00C943B26CF931A
:100FF000DF9300D000D0CDB7DEB7EBEFF1E083E0B8
:10100000808311828FEF828383838091FB01909193
:10101000FC01A091FD01B091FE0189839A83AB830D
:10102000BC83BC01CD010F900F900F900F90DF910A
:10103000CF910C94F1078091FB01E3E0F2E080FF97
:1010400006C064E070E083E092E00C9467071182D0
:1010500010821282339682E0EF30F807C1F7F1CFA9
:10106000E3E0F2E0818360834283339692E0EF30E5
:10107000F907C1F70C941B08EF92FF920F931F938F
:10108000CF93DF9300D00F92CDB7DEB7182FE92EA4
:10109000F62E042F8091FB019091FC01A091FD019F
:1010A000B091FE018093FF0190930002A093010292
:1010B000B09302028091FB0180FF1FC09E012F5F51
:1010C0003F4F812F9E2D0E946A078091FF0110FBE8
:1010D00087F98093FF011695809100028078182B84
:1010E000E0FA17F910930002F09201020093020255
:1010F0004B8169818A810E9430080F900F900F9078
:10110000DF91CF911F910F91FF90EF9008950F9372
:101110001F93CF93DF9300D000D00F92CDB7DEB7EF
:1011200089839D83062F142F8091FB0180FF54C07B
:10113000982F9E77923091F589819D810E943C087D
:101140008091FB01B981B0FB87F98093FB01B695D3
:101150008091FC018078B82B8D8180FBB7F9B0932A
:10116000FC010093FD011093FE018091FB01909121
:10117000FC01A091FD01B091FE0189839A83AB83AC
:10118000BC83BC01CD010F900F900F900F900F907A
:10119000DF91CF911F910F910C94F107982F9695A5
:1011A0009F732EE3290F2F73243018F41091FE0142
:1011B000C7CF965C9F73993018F6881F8827881FC1
:1011C0009091FC019D83990F982B9983AD81A7FB8A
:1011D000AA27A0F9AD83B4CF0F900F900F900F9076
:1011E0000F90DF91CF911F910F910895EBEFF1E0F8
:1011F0002081221F2227221F3091FC01432F440F00
:10120000842F822B37FB992790F9089668E671E0C6
:101210000E94FB25438162810C9487082091FB0189
:10122000221F2227221F3091FC01432F440F842FBD
:10123000822B37FB992790F98830910540F4805A2A
:101240009E4F4091FE016091FD010C948708089724
:1012500068E671E00E94FB25F4CF6091FD01683FD4
:1012600090F4685F8091FB01881F8827881F909108
:10127000FC01292F220F97FB992790F94091FE013D
:10128000822B0C9487086FEFEDCF6091FD016830E1
:1012900090F068508091FB01881F8827881F9091EB
:1012A000FC01292F220F97FB992790F94091FE010D
:1012B000822B0C94870860E0EDCF4091FE01483FFF
:1012C00090F4485F8091FB01881F8827881F9091C8
:1012D000FC01292F220F97FB992790F96091FD01BE
:1012E000822B0C9487084FEFEDCF4091FE014830E0
:1012F00090F048508091FB01881F8827881F9091AB
:10130000FC01292F220F97FB992790F96091FD018D
:10131000822B0C94870840E0EDCFCF93DF9300D071
:1013200000D0CDB7DEB79091FB0190FF47C0917818
:10133000811132C092609093FB018091FB019091EA
:10134000FC01A091FD01B091FE0189839A83AB83DA
:10135000BC83BC01CD010E94F1078091FB01982F55
:101360009E77923009F510925801881F8827881FB0
:101370009091FC01292F220F97FB992790F940911A
:10138000FE016091FD01822B0F900F900F900F9046
:10139000DF91CF910C948708893110F09063CBCF07
:1013A0008F73880F982BC7CF982F9695925C9F7359
:1013B0009631D8F691E090935801D7CF0F900F90C7
:1013C0000F900F90DF91CF9108958091CE018160B1
:1013D0008093CE0181E0809359010E94E61881112B
:1013E00004C00E94C5180E94F7070E94ED07609391
:1013F000FB017093FC018093FD019093FE016E77D9
:1014000061F40E94F7070E94ED076093FB0170935F
:10141000FC018093FD019093FE0181E080935801CF
:101420008091FB0180FF04C086958F730C948D0919
:1014300008958091FB0186958F738F5F893108F045
:1014400081E00C948D09CF93DF9300D000D0CDB70D
:10145000DEB79091FB01892F8E7F90FF8160809392
:10146000FB018091FB019091FC01A091FD01B091E5
:10147000FE0189839A83AB83BC83BC01CD010E94AA
:10148000F1078091FB0180FF0AC086958F730F9052
:101490000F900F900F90DF91CF910C948D091092C7
:1014A00058019FEFA0E7B2E09150A040B040E1F7B3
:1014B00000C000000F900F900F900F90DF91CF9120
:1014C0000C941B08CF93C82F80915601909157011F
:1014D0000E949219EC2FF0E0EB5CFE4FE491E817CC
:1014E000190609F010F50E94861990935701809310
:1014F0005601E0915501F0E0E75CFE4F4491809188
:10150000FB01881F8827881F9091FC01292F220F3B
:1015100097FB992790F96091FD01822B0E943C086E
:10152000809155018F5F80935501CF910895CF939E
:10153000C82F80915301909154010E949219EC2F71
:10154000F0E0EE5CFE4FE491E817190609F0E8F4CC
:101550000E94861990935401809353014091FE019B
:101560006091FD0180915101909152010E943C08CF
:101570008091510190915201019668E671E00E94BC
:10158000E7259093520180935101CF910895CF9216
:10159000DF92EF92FF921F93CF93DF93182F8091EA
:1015A0004F01909150010E949219E12FE695F0E0D1
:1015B000EE5CFE4FE491E817190609F0C8F50E94A9
:1015C00086199093500180934F0183E0E82E82E0CA
:1015D000F82ED0E0C0E098E6C92EDD24D3948091A7
:1015E0004D0190914E018C0F9D1FB6010E94E72581
:1015F00097014091FE016091FD010E946A07C65A61
:10160000DF4F83E0E80EF11CC83681E0D80739F7D8
:101610000E941B0880914D0190914E0110FF10C057
:101620000196BE010E94E72590934E0180934D01E3
:10163000DF91CF911F91FF90EF90DF90CF900895B1
:101640000197F2CFAF92BF92CF92DF92EF92FF92CB
:101650000F931F93CF93DF93C82FDD24DA9480FD7F
:1016600002C0DD24D39480914B0190914C010E94E3
:101670009219C695EC2FF0E0E15DFE4FE491E8177A
:10168000190611F008F053C00E94861990934C017E
:1016900080934B01C3E0D2E010E000E097E0A92E78
:1016A000B12C198218821A8287E0E82EF12CC12C05
:1016B00080914A018C0D87FD8C5F082E000C990BE0
:1016C00080179107E9F42091FE012E9DC0012F9D06
:1016D000900D1124B5010E94FB25462F8091FB013E
:1016E000881F8827881F9091FC01592F550F97FB61
:1016F000992790F99E016091FD01852B0E946A0750
:10170000CD0C81E0E81AF10899F60F5F1F4F239680
:101710000430110531F60E941B0880914A0191E0C6
:10172000D91212C081110EC083E080934A01DF916B
:10173000CF911F910F91FF90EF90DF90CF90BF90CE
:10174000AF9008958150F1CF90E001968370992772
:10175000ECCFBF92CF92DF92EF92FF920F931F9345
:10176000CF93DF93CDB7DEB72C970FB6F894DEBFDB
:101770000FBECDBF182F80914801909149010E9462
:101780009219E12FF0E0E45DFE4FE491E8171906AD
:1017900011F008F071C00E9486199093490180935E
:1017A00048018E010F5F1F4FF12CE12C6801F801F9
:1017B000118210821282B12C909100018091470118
:1017C000B99E800D112484300CF083E087FD80E009
:1017D000082E000C990B8E159F05A1F48091FB013A
:1017E000881F8827881F9091FC01592F550F97FB60
:1017F000992790F998014091FE016091FD01852B98
:101800000E946A07B394F7E0BF12D6CF8FEFE81AB1
:10181000F80A0D5F1F4FE4E0EE16F10441F6A3E075
:10182000B2E089E090E09C0123703327F901EE0FCC
:10183000FF1FE20FF31FEC0DFD1D218111962C936C
:10184000119720812C93228112962C931297019646
:1018500013968D30910539F70E941B089091000175
:10186000809147019130E1F48A3FB4F489EF80938D
:1018700047018FEF809300012C960FB6F894DEBFDE
:101880000FBECDBFDF91CF911F910F91FF90EF90D1
:10189000DF90CF90BF900895815080934701ECCFA7
:1018A0008B302CF08AE08093470181E0E3CF8F5F9B
:1018B000F4CFCF93DF9380914501909146010E9430
:1018C0009219883E934028F10E9486199093460110
:1018D000809345018091430190914401019681706C
:1018E00099279093440180934301C3E0D2E09E0185
:1018F0004091FE016091FD0190E080E00E946A0746
:10190000239682E0CF30D80791F7DF91CF910C94E6
:101910001B08DF91CF91089580915801882371F1C0
:101920008091FB0186958F739EE3980F9F7394308F
:1019300018F482500C94620A9AE3980F9F739330C4
:1019400018F486500C94970A97E3980F9F7396307B
:1019500018F489500C94C70A91E3980F9F7396303E
:1019600018F48F500C94220B9BE2980F9F739330C6
:1019700018F485510C94A90B0C94590C089590936C
:101980005F0180935E010895E0915E01F0915F0137
:10199000309721F00190F081E02D099480E00895C6
:1019A000E0915E01F0915F01309721F00280F381B8
:1019B000E02D09940895E0915E01F0915F01309768
:1019C00021F00480F581E02D0994089520915C01B7
:1019D00030915D012817390771F090935D01809374
:1019E0005C01E0915E01F0915F01309721F006808B
:1019F000F781E02D0994089520915A0130915B01FF
:101A00002817390771F090935B0180935A01E09198
:101A10005E01F0915F01309721F00084F185E02DA7
:101A20000994089508950C94120D0E947D190E9446
:101A300098060E94351A0C94E509BF92CF92DF9266
:101A4000EF92FF920F931F93CF93DF9300D000D0BC
:101A50000F92CDB7DEB70E94B10691E6C92E91E094
:101A6000D92EF12CE12CBE2C8E2D0E942907182F87
:101A7000F60101916F01081709F453C08091CE015E
:101A800081FD0E942F07012700FD48C001FF49C0CA
:101A900091E081E09983BA8221E030E0690102C0DF
:101AA000CC0CDD1C8A95E2F7812F90E08C219D21E2
:101AB000892B09F420E02B830E9486198160782FFE
:101AC0009D838C8349815A816B818D810E94B40DE5
:101AD000F701EF59FE4F8081C826C0820E94E21CA8
:101AE0000E94C40C90916001891779F10E94C40C86
:101AF000809360010F900F900F900F900F90DF91E7
:101B0000CF911F910F91FF90EF90DF90CF90BF90FA
:101B10000C943C04EE24E394F12CA5CF90E080E0FB
:101B2000B9CFEA94EF28B1F78FEF89838A831B82BC
:101B30000E9486198160782F9D838C8349815A8108
:101B40006B818D810E94B40DC9CF0F900F900F90C3
:101B50000F900F90DF91CF911F910F91FF90EF9019
:101B6000DF90CF90BF900895CF93DF93CDB7DEB7CE
:101B70002B970FB6F894DEBF0FBECDBF4F835887AB
:101B800069877A878B871E8285E0FE013796DE01A2
:101B9000119601900D928A95E1F749815A816B81E6
:101BA0007C818D819E812B960FB6F894DEBF0FBE8F
:101BB000CDBFDF91CF910C942B14882309F4D8C0AA
:101BC000823871F40E94C40C81FDD2C089E30E9466
:101BD000CC170E94961889E30E9409180C94961855
:101BE000833859F40E94C40C80FDC2C083E50E9472
:101BF000CC170E94961883E5EFCF843859F40E94E1
:101C0000C40C82FDB5C087E40E94CC170E949618D0
:101C100087E4E2CF9CEF980F913A18F40E94CC171A
:101C2000DDCF90E2980F983050F4877091E001C0BA
:101C3000990F8A95EAF7892F0E944D18CFCF9BE51F
:101C4000980F933070F4853A31F0863A39F083E892
:101C500090E00C94E60C81E890E0FBCF82E890E005
:101C6000F8CF98E5980F953108F082C0883A09F4CA
:101C700040C0893A09F440C08A3A09F440C08B3A1E
:101C800009F440C08C3A09F440C08B3B09F440C0D1
:101C90008C3B09F440C08D3A09F440C0803B09F404
:101CA00040C08E3A09F440C08F3A09F440C0813BED
:101CB00009F440C0823B09F440C0833B09F440C0B2
:101CC000843B09F440C0853B09F440C0863B09F4DD
:101CD00040C0873B09F440C0883B09F440C0893BC1
:101CE00009F440C08A3B09F440C090E080E00C94C5
:101CF000FC0C82EE90E0FBCF89EE90E0F8CF8AEE0C
:101D000090E0F5CF85EB90E0F2CF86EB90E0EFCF5F
:101D100083EB90E0ECCF84EB90E0E9CF87EB90E0B1
:101D2000E6CF8CEC90E0E3CF8DEC90E0E0CF83E861
:101D300091E0DDCF8AE891E0DACF82E991E0D7CF78
:101D400084E991E0D4CF81E292E0D1CF83E292E0C6
:101D5000CECF84E292E0CBCF85E292E0C8CF86E29C
:101D600092E0C5CF87E292E0C2CF8AE292E0BFCF95
:101D70000895882309F44BC0823871F40E94C40C82
:101D800081FF45C089E30E94CC170E94961889E321
:101D90000E9409180C949618833859F40E94C40CB8
:101DA00080FF35C083E50E94CC170E94961883E51A
:101DB000EFCF843859F40E94C40C82FF28C087E416
:101DC0000E94CC170E94961887E4E2CF9CEF980FF0
:101DD000913AF0F290E2980F983050F4877091E0C9
:101DE00001C0990F8A95EAF7892F0E945318D2CF24
:101DF0009BE5980F933020F490E080E00C94E60C83
:101E0000885A853120F490E080E00C94FC0C089511
:101E1000882321F00E944D180C9496180895882369
:101E200021F00E9453180C94961808958F929F9257
:101E3000AF92BF92DF92EF92FF920F931F93CF93D7
:101E4000DF9300D000D00F92CDB7DEB77C016D8359
:101E50007983FC01058102950F70128111110E9496
:101E60006C180E94C517D82E882371F01123A1F099
:101E70008D81805E883080F082E00E94AF170E94E2
:101E8000C51791E0D82ED926E981E295EF70F0E0F0
:101E9000E658F94D0C940F26D12CF6CF09810F701E
:101EA000F981F07F11F00295007F1123B1F000233A
:101EB00061F08D81805E883018F02D81211109C07C
:101EC000802F0E944D180E9496188D810E94DD0D72
:101ED00015C0802F0E945E18F6CF8D810E94B90E2A
:101EE000002361F08D81805E883018F03D813111D2
:101EF00029C0802F0E9453180E949618DD2009F4F3
:101F0000D3C10E94A21780FDCFC1F70112820E94A7
:101F10009C170E94E915C7010E9465110E949C1739
:101F20000F900F900F900F900F90DF91CF911F9116
:101F30000F91FF90EF90DF90BF90AF909F908F90A8
:101F40000C940B16802F0E946418D6CF49814F70D5
:101F5000B42E5981507F503219F0B29480EFB822DC
:101F60008D81882369F0813029F1112369F10023E3
:101F700059F0F701858180FFA8CF8F70858304C059
:101F8000112361F0011104C08B2D0E94080FB6CF00
:101F90008B2D0130D1F70E948018B0CF011106C0FF
:101FA0000E9483188B2D0E940F0FA8CF013009F4D7
:101FB000A5CFF6CF112321F0063008F09FCFE4CF54
:101FC000053008F09BCFEECF002361F38D810E9496
:101FD000B90E94CF898186958695837069F081309A
:101FE00009F08CCF8D8199819370111102C090E01E
:101FF00080E00E94FC0C82CF8D8199819370111139
:1020000002C090E080E00E94E60C78CF8D81112321
:1020100029F00E94F01B0E94D71C70CF0E94581C10
:10202000FACF8981837009F05FC0111167CF2D81CC
:10203000229526952770220F220F8D818F7090E0B8
:10204000B0E0A0E04C015D01022E04C0880C991C98
:10205000AA1CBB1C0A94D2F7FD8160E070E0CB01A2
:10206000F4FF0FC06FE070E080E090E004C0660F06
:10207000771F881F991F2A95D2F7609570958095D4
:10208000909529812695269523702D832230B1F0D5
:10209000233019F19B01AC01282939294A295B29F0
:1020A00029833A834B835C833D8169817A818B816B
:1020B0009C813130B1F00E94761520CF9B01AC019C
:1020C000282939294A295B2929833A834B835C8350
:1020D000CA01B9010E94A01511CF0E947615C50151
:1020E000B4010E944C150ACF8695112311F0898105
:1020F0008170882309F402CF2D81229526952770BF
:10210000220F220F8D818F7090E0B0E0A0E04C0193
:102110005D01022E04C0880C991CAA1CBB1C0A94E9
:10212000D2F73D8160E070E0CB0134FF0FC06FE07B
:1021300070E080E090E004C0660F771F881F991F51
:102140002A95D2F76095709580959095498146952E
:10215000469543704D834230B1F0433019F19B01F5
:10216000AC01282939294A295B2929833A834B83E1
:102170005C833D8169817A818B819C813130B1F0B2
:102180000E947C16BBCE9B01AC01282939294A2923
:102190005B2929833A834B835C83CA01B9010E947E
:1021A000A616ACCE0E947C16C501B4010E94521640
:1021B000A5CE3D81323F09F447C080F4303F79F12C
:1021C000313FD9F1832F805E8031D0F0112309F4A3
:1021D00056C001117ACE89818F7133C04D81433F42
:1021E000D1F1443F99F7112309F43FC089818F71E0
:1021F00089830E94E91563E089810E94A6177ECE3B
:102200005D815F705D8389818F71112321F00E9450
:10221000E9158D81BACE0E940B168D81C4CE112393
:1022200041F0053008F06ACE89818F710E94301626
:1022300065CE063008F062CEF7CF89818F71112309
:1022400039F00E94E9155ACE89818F711123C9F3A3
:102250000E940B1653CE112329F089818F710E94A1
:10226000D4154CCE0E94CA1549CE81E00E94AF170A
:10227000023008F443CE82E00E94AF173FCE011136
:10228000A5CE89818F71E4CF49814F706D81C701DF
:102290000E94BB020E94C51431CE49814F706D81EE
:1022A000C7010E943E042ACE0F900F900F900F900E
:1022B0000F90DF91CF911F910F91FF90EF90DF90E2
:1022C000BF90AF909F908F9008950F931F93CF93DF
:1022D000DF93EC018B819C81892B29F08881998186
:1022E00089238F3F29F4DF91CF911F910F9108959A
:1022F000CE010E94D4028823B1F3688179818A815A
:102300000E9472178C010E94D0160E944115B801DC
:10231000CE01DF91CF911F910F910C94160F0E9467
:102320006C180E947D180E943F180E9496180E9407
:10233000C81D0E94D71C90E080E00E94E60C90E04F
:1023400080E00C94FC0C0E945B180C948F110E948E
:102350006617282F892F82958F70903C80F48A30E1
:10236000B0F4843020F4823090F480E00895863018
:10237000E1F781E0203E88F0213FB9F70EC08C30B4
:1023800011F08F3091F793FB882780F9089581E051
:10239000203F39F018F4203E40F70895243F29F7F4
:1023A000FCCF0895CF93DF9300D000D00F92CDB72C
:1023B000DEB70F900F900F900F900F90DF91CF919D
:1023C0000895CF93DF9300D000D000D0CDB7DEB713
:1023D00026960FB6F894DEBF0FBECDBFDF91CF912A
:1023E00008951F93CF93DF93E091640116E08091ED
:1023F00065018E1304C0DF91CF911F910895CE2FF8
:10240000D0E01E9FF0011124EA59FE4F4081518116
:1024100062817381848195810E94E111FE01319670
:10242000E770E5CF40919601509197016091980136
:102430007091990180919A0190919B010C94E11106
:102440001F93CF93DF9380919B01807FC1F4809194
:1024500098018823A1F080916401C0916501609189
:102460009601709197014091990150919A01D62F50
:10247000D723DA01A095B09516E0C81304C0DF9108
:10248000CF911F91089590E04115510511F0DF3F64
:1024900031F401968770F1CF2A0F3B1F17C0189FA8
:1024A000F001199FF00D1124EA59FE4F21812713E5
:1024B000F0CF20812613EDCF22812111EACF238195
:1024C00034812417350740F3241B350B283C310594
:1024D00000F720919B012F70206120939B0126E043
:1024E000289FF001299FF00D1124E559FE4F8081AE
:1024F0008F708061808386E991E00E946511DF9191
:10250000CF911F910C94F1119F92AF92BF92CF92F5
:10251000DF92EF92FF920F931F93CF93DF93CDB78C
:10252000DEB72B970FB6F894DEBF0FBECDBF8C0180
:1025300085E0F801DE01179601900D928A95E1F78A
:10254000D8014C9111965C9111971296EC901297CC
:102550008091990190919A01009709F46BC12091A3
:10256000960130919701632F62236F3F09F462C196
:102570001396CD90DC9090909801992009F4F8C0C2
:10258000C816D90608F43FC0F601E81BF90BCF01C5
:10259000FF24F394883C910508F0F12C86E9A82EDD
:1025A00081E0B82E80919B01982F907FFF2009F445
:1025B000B7C0911180C0FE2C35132AC0241328C047
:1025C000E11026C08F70806180939B010E941212DF
:1025D000C5010E94651180919B01D80115968C93CD
:1025E0008F2D2B960FB6F894DEBF0FBECDBFDF91B7
:1025F000CF911F910F91FF90EF90DF90CF90BF9000
:10260000AF909F900895809590958C0D9D1DC0CFA3
:10261000CD2829F0842F85238F3F09F019C180E050
:10262000B82FB170DB2EE09164012091650136E096
:1026300080FD1CC0EE20A1F280919B0181608093FF
:102640009B01F12CCDCF8E2F90E03E9FF001112405
:10265000EA59FE4F6181651306C06081641303C0AF
:1026600062816E11E7CFFC013196E770E213EBCF88
:102670004F8358878F8198850E946617292F22954E
:102680002F70903260F0225F2F70223078F49F70AC
:1026900051F0F8019581907F31F4D12C0AC09F70E0
:1026A00011F08823D1F3805E8830B8F3C8010E940E
:1026B0006511FD2C95CF351306C0241304C0D80135
:1026C000EE2009F47BC04F8358878F8198850E9444
:1026D000A711882309F4B8C0EE2009F4B5C0809191
:1026E0009B01803270F020919601309197013A83DE
:1026F00029831B82DD82CC828E83CE0101960E94CB
:10270000651186E0F801A6E9B1E001900D928A9585
:10271000E1F70E9420120E941212FF24F39460CF6E
:10272000911113C07C2DDB86CA866E2D8B850E948D
:10273000D21186E991E00E94651186E0F5011192BF
:102740008A95E9F70E9412124BCF3513BCCF2413A0
:10275000BACFE110B8CFD80115968C93C8010E946A
:10276000651186E0F50111928A95E9F7F92C38CFC9
:10277000C816D90688F1B601681B790BCB01F12C7C
:10278000883C910508F047C0FE2CEE2009F45CC09F
:10279000351330C024132EC080919B0180FD21C0D1
:1027A000982F907FF1F0D80115968C931597903F54
:1027B00039F0982F907F905F8F70892B15968C93AE
:1027C000C8010E94651186E0F801A6E9B1E0019018
:1027D0000D928A95E1F7B6CF809590958C0D9D1D51
:1027E000CECF86E0F801A6E9B1E001900D928A957E
:1027F000E1F7F6CE4F8358878F8198850E94A71105
:1028000081117FCF80919B01816080939B01C801E2
:102810000E946511E5CE7C2DDB86CA866E2D8B85E8
:102820000E94D21186E0E6E9F1E0DF011D928A956F
:10283000E9F788CFEE2041F04F8358878F81988544
:102840000E94A71181115DCFC8010E94651165CF5B
:1028500081E08E25E5CE1F93CF93DF93CDB7DEB712
:102860002C970FB6F894DEBF0FBECDBF4F835887AD
:1028700069877A878B879C87CE0107960E9484128E
:10288000882369F08A859B85892B39F04F8158858B
:10289000842F85238F3F09F071C016E05FC086E06A
:1028A000FE013796DE01119601900D928A95E1F7AF
:1028B0008A859B85892B89F388859F8189238F3F12
:1028C00061F32091650130E0C90101968770992775
:1028D000409164014817190671F40E94A3111092E7
:1028E00065011092640186E0E6E9F1E0DF011D92E6
:1028F0008A95E9F7D2CF96E0929FD001939FB00DD1
:102900001124AA59BE4FFE01319601900D929A955D
:10291000E1F7809365010E94F111BFCF819FC00153
:1029200011248A599E4F0E9484128823E9F0E09175
:1029300064011E9FF0011124EA59FE4F408151812C
:1029400062817381848195810E94E111809164018B
:1029500090E00196877099278093640180916401CB
:10296000909165018913DACF2C960FB6F894DEBFEB
:102970000FBECDBFDF91CF911F91089569857A85F4
:102980008B859C850E94E11188CFEF92FF920F9377
:102990001F93CF93DF938C01892B89F0F12CEE24C8
:1029A000E394E8012196F8018491843709F457C033
:1029B000A0F4823009F43EC048F48130D1F0DF91B8
:1029C000CF911F910F91FF90EF9008959CEF980F7A
:1029D0009037A8F70E94DD0D0AC0853709F44CC076
:1029E0009CE7980F903758F78F770E94B90E8E01A9
:1029F00016C00E5F1F4FFE01849190E2980F983031
:102A000060F48770FE2D01C0FF0F8A95EAF78F2FC3
:102A10000E946F180E94961802C00E94DD0D8F2D33
:102A2000815008F4BECFEFE9FFE03197F1F700C025
:102A30000000F6CF0E5F1F4FFE01849190E2980FC9
:102A4000983050F48770FE2D01C0FF0F8A95EAF789
:102A50008F2F0E947518DECF0E94B90EE0CF0E5F57
:102A60001F4FFE01C491C150D0F28FE99FE0019742
:102A7000F1F700C00000F7CF0E5F1F4FFE01F4908A
:102A8000CECF08956093A5017093A6018093A7010E
:102A90009093A8010C948F11CF93DF9300D000D0B6
:102AA000CDB7DEB769837A838B839C838091A50140
:102AB0009091A601A091A701B091A80129813A8126
:102AC0004B815C81822B932BA42BB52B8093A5018A
:102AD0009093A601A093A701B093A8010F900F9027
:102AE0000F900F90DF91CF910C948F11CF93DF93C4
:102AF00000D000D0CDB7DEB769837A838B839C8307
:102B00008091A5019091A601A091A701B091A80183
:102B100029813A814B815C8182239323A423B523AD
:102B20008093A5019093A601A093A701B093A8015B
:102B30000F900F900F900F90DF91CF910C948F1109
:102B4000CF93DF9300D000D0CDB7DEB769837A830F
:102B50008B839C838091A5019091A601A091A701F0
:102B6000B091A80129813A814B815C81822793270A
:102B7000A427B5278093A5019093A601A093A70150
:102B8000B093A8010F900F900F900F90DF91CF910D
:102B90000C948F111092A1011092A2011092A30126
:102BA0001092A4010C948F1141E050E060E070E0BD
:102BB00004C0440F551F661F771F8A95D2F74093B4
:102BC000A1015093A2016093A3017093A4010C94FE
:102BD0008F11282F81E090E0A0E0B0E004C0880FC2
:102BE000991FAA1FBB1F2A95D2F74091A1015091AE
:102BF000A2016091A3017091A401842B952BA62BB7
:102C0000B72B8093A1019093A201A093A301B0934D
:102C1000A4010C948F1141E050E060E070E004C02A
:102C2000440F551F661F771F8A95D2F74095509520
:102C3000609570958091A1019091A201A091A3014E
:102C4000B091A40184239523A623B7238093A101E7
:102C50009093A201A093A301B093A4010C948F11AF
:102C6000282F81E090E0A0E0B0E004C0880F991F19
:102C7000AA1FBB1F2A95D2F74091A1015091A20132
:102C80006091A3017091A40184279527A627B727F7
:102C90008093A1019093A201A093A301B093A401FA
:102CA0000C948F11CF93DF9300D000D0CDB7DEB757
:102CB00069837A838B839C838091A1019091A20187
:102CC000A091A301B091A40129813A814B815C813B
:102CD000822B932BA42BB52B8093A1019093A2015F
:102CE000A093A301B093A4010F900F900F900F90A9
:102CF000DF91CF910C948F11CF93DF9300D000D050
:102D0000CDB7DEB769837A838B839C838091A101E1
:102D10009091A201A091A301B091A40129813A81CF
:102D20004B815C8182239323A423B5238093A1014B
:102D30009093A201A093A301B093A4010F900F90D0
:102D40000F900F90DF91CF910C948F11CF93DF9361
:102D500000D000D0CDB7DEB769837A838B839C83A4
:102D60008091A1019091A201A091A301B091A40131
:102D700029813A814B815C8182279327A427B5273B
:102D80008093A1019093A201A093A301B093A40109
:102D90000F900F900F900F90DF91CF910C948F11A7
:102DA0000895E92FEE0FE80F8E2F877041E001C0E4
:102DB000440F8A95EAF7E695E695E69585E0E89F63
:102DC000F0011124E456FE4F30E020E070E0519114
:102DD000DF011197CB01022E02C0969587950A94C8
:102DE000E2F7817081958527842385278C932F5F57
:102DF0003F4F2530310559F70895E92FEE0FE80FC1
:102E00009E2F9770E695E695E69585E0E89FF001A0
:102E10001124E456FE4F50E040E080E0219130E084
:102E2000092E02C0369527950A94E2F721703327C0
:102E3000042E01C0220F0A94EAF7822B4F5F5F4FE6
:102E40004530510559F70895BF92CF92DF92EF9226
:102E5000FF920F931F93CF93DF938C01C090A1013A
:102E6000D090A201E090A301F090A4018091A5016F
:102E70009091A601A091A701B091A801C82AD92AD2
:102E8000EA2AFB2ACFE1D0E0BC2ED701C6010C2EE6
:102E900004C0B695A795979587950A94D2F780FDBB
:102EA0000EC0219788F7B12C8B2DDF91CF911F9108
:102EB0000F91FF90EF90DF90CF90BF900895B801F1
:102EC0008C2F0E945804019761F3EECFCF93DF93CC
:102ED000D82FC92F0E9424176D2F7C2FDF91CF91FF
:102EE0000C9458041F93CF93DF93162FD72F9091F4
:102EF0006301992339F0862F972FDF91CF911F918E
:102F00000C946617882391F0862F972F0E94241720
:102F1000C82F682F812F9D2F0E94D116612F7D2FE2
:102F20008C2FDF91CF911F910C945804862F972FEF
:102F30000E94FD16C82FF2CF8091A9018595859535
:102F4000859508958091A9018770089598E0899FDB
:102F500090011124622B6093A9010C94E9159091C2
:102F6000A901809589238093A901282F277061F4F6
:102F7000282F082E000C330B9217130629F0859585
:102F8000859585950C940B1608959091A9019770DD
:102F900081E009F480E00895909113019923E1F014
:102FA0009091130297FF18C0E82FE695E695E695F5
:102FB000EF3139F12091010130910201E20FF32F3D
:102FC000F11D877021E030E001C0220F8A95EAF7F9
:102FD0008181822B8183089520910101309102012A
:102FE000F90132969FEF40E05191851751F09F3FD4
:102FF00019F4511101C0942F4F5F4E31A9F79F3F33
:1030000009F40895290F311D97FD3A95F90182833E
:10301000089590911301992301F19091130297FF64
:103020001CC0E82FE695E695E695EF3139F1209141
:10303000010130910201E20FF32FF11D877021E0B1
:1030400030E0A90102C0440F551F8A95E2F7CA017A
:103050008095918189238183089520910101309188
:103060000201F9013296205E3F4F9191891303C00E
:10307000DF0111971C92E217F307B9F7089581E079
:1030800090E0E0910101F0910201E80FF91F108238
:10309000019680329105A9F708959091CD01982B62
:1030A0009093CD010895982F90958091CD0189231B
:1030B0008093CD0108951092CD0108959091CC0197
:1030C000982B9093CC010895982F90958091CC01E6
:1030D00089238093CC0108951092CC01089590919A
:1030E000CB01982B9093CB010895982F90958091C8
:1030F000CB0189238093CB0108951092CB010895D1
:103100008093AA0108951092AA01089520910101C7
:1031100030910201F9013196205E3F4F80E091919C
:1031200091118F5FE217F307D1F70895E091010144
:10313000F09102018091CD018083E0910101F09135
:10314000020180819091CC01892B8083E091010163
:10315000F091020180819091CB01892B8083909125
:10316000AA01992361F0E0910101F09102018081AF
:10317000892B80830E94861881111092AA01809168
:103180000101909102010C94D00C6DEE7EEF90E065
:1031900080E00E94472660E082E090E00E942926BD
:1031A00060E083E090E00E94292660E084E090E007
:1031B0000E94292660E085E090E00E94292640E0F8
:1031C00050E0BA0188E090E00C943B2690E080E06B
:1031D0000E9423269C0181E02D3E3E4F09F080E0B5
:1031E000089582E090E00C941526682F82E090E02C
:1031F0000C94292683E090E00C941526682F83E038
:1032000090E00C94292684E090E00C941526682F19
:1032100084E090E00C94292680911902843039F1E1
:103220001092CF0188E190E020E40FB6F894A895C1
:10323000809360000FBE2093600080E00E943C04F9
:1032400083B7817F846083BF83B7816083BF7894B5
:10325000889583B78E7F83BF0FB6F894A895809129
:103260006000886180936000109260000FBE089536
:10327000089508950E9438190E94B1060E943919D4
:1032800080E00E942907811109C081E00E9429077E
:10329000982F81E0911103C080E0089581E00895A6
:1032A0000E94A3110E94C40C0C943C041F921FB6F0
:1032B0001F9211248F939F93AF93BF938091CF015F
:1032C000811113C080910F0290911002A091110200
:1032D000B09112024196A11DB11D80930F029093EF
:1032E0001002A0931102B0931202BF91AF919F916F
:1032F0008F911F901FBE1F90189582E084BD93E0B0
:1033000095BD9AEF97BD80936E0008952FB7F894FE
:1033100080910F0290911002A0911102B0911202BF
:103320002FBF0895CF92DF92EF92FF929C014FB78B
:10333000F89480910F0290911002A0911102B09127
:1033400012024FBF6C017D01EE24FF24A90170E041
:1033500060E0C416D506E606F70638F0821B930B2C
:10336000FF90EF90DF90CF9008950197F7CF1F92D5
:103370001FB61F9211248F939F93AF93BF93809199
:103380000F0290911002A0911102B09112020196C9
:10339000A11DB11D80930F0290931002A093110202
:1033A000B0931202BF91AF919F918F911F901FBE5A
:1033B0001F9018950E94BE21F8942FEF87EA91E69E
:1033C000215080409040E1F700C0000087E090EB82
:1033D000DC018093220290932302A0932402B093F5
:1033E000250288E19CE00FB6F894A89580936000D0
:1033F0000FBE90936000FFCF0F931F93CF93DF9387
:10340000C0E0082F10E08C2F0E942907D82F80FFE2
:1034100008C060E07C2F80E00E943F040817190775
:1034200051F0D1FF10C061E07C2F80E00E943F048A
:103430000817190741F481E0DF91CF911F910F9197
:103440000895C1E0E0CFC130E1F780E0F5CFCF9340
:10345000C82F8CE20E94FC19882321F08C2FCF9179
:103460000C94FC1980E0CF910895CF93DF9300D0A6
:1034700000D0CDB7DEB70E94E618811102C00E94CD
:10348000C51895E6998308C00E94B1068FE39CE9B0
:103490000197F1F700C00000A981A150A983A111F3
:1034A000F3CF89E20E94271A811110C18AE20E949B
:1034B000271A81110E94C51885E00E94271A8111E0
:1034C0000E94DA190E94F1188093CE0187E00E94D1
:1034D000271A882371F08BE10E94271A882309F4A8
:1034E000D1C09091CE01892F8D7F91FF8260809312
:1034F000CE018091CE010E94F5180E94031990E040
:10350000909314028093130280EE0E94271A88235E
:1035100041F090911302892F8E7F90FF81608093FC
:10352000130289E30E94271A882341F09091130225
:10353000892F8D7F91FF82608093130282EE0E941B
:10354000271A882341F090911302892F8B7F92FFD5
:1035500084608093130286EE0E94271A882341F02C
:1035600090911302892F877F93FF886080931302C5
:1035700083EE0E94271A882341F090911302892F2D
:103580008F7E94FF80618093130285E30E94271A47
:10359000882341F090911302892F8F7D95FF8062DF
:1035A0008093130281E30E94271A882341F09091AF
:1035B0001302892F8F7B96FF80648093130281E131
:1035C0000E94271A882341F090911302892F97FBBC
:1035D00087F9805880931302809113020E94071983
:1035E00087E20E94271A89838EE10E94271A882386
:1035F00019F0B981B260B9838FE10E94271A88233C
:1036000019F029812460298380E20E94271A8823E7
:1036100019F039813860398381E20E94271A8823A2
:1036200019F049814061498382E20E94271A882368
:1036300019F059815062598383E20E94271A882326
:1036400019F089818064898384E20E94271A882383
:10365000B1F199819068998389810E94FE1839811E
:10366000232F30E050E040E029833A834B835C8392
:10367000CA01B9010F900F900F900F90DF91CF9179
:103680000C9442158EE00E94271A882339F09091FD
:10369000CE01892F8B7F92FF846029CF80E10E9429
:1036A000271A9091CE01882329F0892F877F93FFD5
:1036B00088601DCF892F8E7F90FF816018CFA981F0
:1036C000A111CACF0E94FA18282FCBCF0F900F90CC
:1036D0000F900F90DF91CF9108958091D20180FFDC
:1036E00012C06091060185E0689FB00111247595B4
:1036F00067957595679560387105A8F56115710531
:10370000A1F1862F089581FF09C06091060185E02F
:10371000689FB001112475956795EDCF6091060102
:1037200082FD0AC08091D3018823D1F090910501D8
:1037300060910601891728F085E0689FB001112487
:10374000DACF869FB001112485E0869F9001879F84
:10375000300D1124692F70E0C9010E94FB25CBCFE9
:1037600065E070E0CECF8FE7089581E00895809105
:10377000D20180FF0CC06091040170E075956795DF
:10378000759567956115710549F1862F089581FF3B
:1037900006C06091040170E075956795F3CF609164
:1037A000040182FD0BC09091D3019923A1F0609197
:1037B000030180910401961738F0682F70E060389B
:1037C000710500F38FE70895899FC001112470E00F
:1037D0000E94FB25F4CF61E070E0D7CF81E008952F
:1037E000803F31F40E946D1B81958093D60108952E
:1037F000813F19F40E946D1BF8CF823F31F40E9483
:103800006D1B81958093D5010895833F19F40E9423
:103810006D1BF8CF893F29F40E94B71B8093D70115
:1038200008958A3F21F40E94B71B8195F7CF8B3F03
:1038300031F40E94B71B81958093D80108958C3F85
:1038400019F40E94B71BF8CF843F31F48091D40162
:1038500081608093D4010895853F21F48091D40143
:103860008260F7CF863F21F48091D4018460F1CF4C
:10387000873F21F48091D4018860EBCF883F21F409
:103880008091D4018061E5CF8D3F31F48091D201E8
:1038900081608093D20108958E3F21F48091D201FE
:1038A0008260F7CF8F3FB9F78091D2018460F1CF6A
:1038B0009091D501803F41F48091D60187FD10920F
:1038C000D601992371F00895813F29F48091D601A2
:1038D0001816ACF3F6CF823F81F497FFF2CF109227
:1038E000D5018091D6019091D701892B9091D80173
:1038F000892B49F71092D3010895833F19F41916C3
:1039000074F3DFCF893F39F48091D7011816CCF6D4
:103910001092D701D6CF8A3F29F48091D70187FF33
:10392000D0CFF6CF8B3F39F48091D80187FFC9CF34
:103930001092D801C6CF8C3F29F48091D801181677
:10394000BCF3BFCF843F31F48091D4018E7F80934C
:10395000D401B7CF853F21F48091D4018D7FF7CF7B
:10396000863F21F48091D4018B7FF1CF873F21F4F2
:103970008091D401877FEBCF883F21F48091D401DF
:103980008F7EE5CF8D3F31F48091D2018E7F809381
:10399000D20197CF8E3F21F48091D2018D7FF7CF56
:1039A0008F3F09F08ECF8091D2018B7FF0CF84EDD5
:1039B00091E00E94DB0C0E9486199093D1018093C4
:1039C000D00108951F93CF93DF9300D000D000D093
:1039D000CDB7DEB78091D0019091D1010E949219AC
:1039E000AC018091D3012091070130E0811106C024
:1039F000209108019AE0299F900111244217530752
:103A000088F02091D501A091D601A9831091D7010A
:103A1000B091D801BE8321110FC09A2F912B9B2BFF
:103A200009F0B2C026960FB6F894DEBF0FBECDBF28
:103A3000DF91CF911F9108958F3F19F08F5F809391
:103A4000D301121624F40E946D1B8093D50180913E
:103A5000D50187FF05C00E946D1B81958093D5011C
:103A60002981121624F40E946D1B8093D601809147
:103A7000D60187FF05C00E946D1B81958093D601FA
:103A80008091D501882309F455C03091D6013D833A
:103A9000332309F44FC0282F880F330B440B550BE9
:103AA00029833A834B835C83CA01B9010E94EE24C7
:103AB00023E333E343E35FE369837A838B839C836C
:103AC00069817A818B819C810E94522569837A83E6
:103AD0008B839C8369817A818B819C810E94B6242F
:103AE0006093D5018D81082E000C990BAA0BBB0B9E
:103AF00089839A83AB83BC83BC01CD010E94EE24F1
:103B000023E333E343E35FE369837A838B839C831B
:103B100069817A818B819C810E94522569837A8395
:103B20008B839C8369817A818B819C810E94B624DE
:103B30006093D601111624F40E94B71B8093D7011D
:103B40008091D70187FF05C00E94B71B81958093A4
:103B5000D7019E81191624F40E94B71B8093D801C7
:103B60008091D80187FF05C00E94B71B8195809383
:103B7000D80126960FB6F894DEBF0FBECDBFDF91F9
:103B8000CF911F910C94D71C8F3F09F057CF68CF6E
:103B900085E0E4EDF1E0DF011D928A95E9F71092EE
:103BA000D3011092D20108958091F9010895CF9325
:103BB000DF9300D00F92CDB7DEB7209119022430E9
:103BC00019F523E029838A839B832093E9008FEFF3
:103BD0009091E800815095FD06C095ED9A95F1F71A
:103BE00000008111F5CF8091E80085FF0DC050E005
:103BF00040E063E070E0CE0101960E9436208091A3
:103C0000E8008E778093E8000F900F900F90DF917F
:103C1000CF910895CF93DF9300D00F92CDB7DEB749
:103C20009C0180911902843031F582E0898320580B
:103C300031093B832A8383E08093E9008FEF9091E1
:103C4000E800815095FD06C095ED9A95F1F70000CA
:103C50008111F5CF8091E80085FF0DC050E040E074
:103C600063E070E0CE0101960E9436208091E8006A
:103C70008E778093E8000F900F900F90DF91CF9197
:103C80000895209119022430F1F422E02093E900F4
:103C90002FEF3091E800215035FD06C035ED3A9503
:103CA000F1F700002111F5CF2091E80025FF0BC0AE
:103CB00050E040E065E070E00E9436208091E8002E
:103CC0008E778093E8000895CF93DF93D82FC92F84
:103CD000809119028430F1F4909113019923E9F055
:103CE0009091130297FF19C08093E9008FEF909194
:103CF000E800815095FD06C095E19A95F1F7000026
:103D00008111F5CF8091E80050E040E060E270E082
:103D100085FD1AC0DF91CF91089581E08093E9007D
:103D20008FEF9091E800815095FD06C095ED9A9532
:103D3000F1F700008111F5CF8091E80085FFEACF0F
:103D400050E040E068E070E08D2F9C2F0E9436200C
:103D50008091E8008E778093E80080E2ED2FFC2FC1
:103D6000A9EDB1E001900D928A95E1F7D3CF809152
:103D70001802811109C00E94BE210E941B2280915D
:103D8000E20084608093E200089510921802089582
:103D9000089508950C94501942E061EC81E00E946E
:103DA0003A2142E061EC82E00E943A2142E061EC7B
:103DB00083E00E943A2142E261EC84E00C943A21D3
:103DC00080911B02893089F148F4823009F494C053
:103DD000833009F44FC0813041F008958A3009F4EE
:103DE0007BC08B3009F461C0089580911A02813A3A
:103DF00009F03FC08091E800877F8093E8008091C0
:103E00001E0290911F02892B61F460E289ED91E01E
:103E100070E00E9485208091E8008B778093E80015
:103E2000089560E090E080E0F3CF80911A02813243
:103E300001F580911E0290911F02009711F00397E7
:103E4000C1F48091E800877F8093E8008091E800CA
:103E500082FF0BC08091F1008093F9018091E8000E
:103E60008B778093E8000C946E2180911902811168
:103E7000EDCF089580911A02813AD9F780911E0200
:103E800090911F02892BA9F78091E800877F80938A
:103E9000E8008091E80080FFFCCF809113018093BF
:103EA000F1008091E8008E77DCCF80911A02813298
:103EB00001F780911E0290911F02892BD1F680910B
:103EC000E800877F8093E8000E946E2180911C02A9
:103ED000809313010C94A31180911A02813249F648
:103EE0008091E800877F8093E8000E946E21809196
:103EF0001D028093FA01089580911A02813A09F017
:103F0000B8CF8091E800877F8093E8008091E80037
:103F100080FFFCCF8091FA01C2CF84B7877F84BF36
:103F20000FB6F894A8958091600088618093600036
:103F3000109260000FBE80E88093610010926100D3
:103F40000E94130D0E94BE210E941B228091E2005C
:103F500084608093E20078940E949B240E94150D57
:103F600089E091E00E94BF0C80911902853029F010
:103F70000E941D0D0E948C0CF7CF0E940C1980919D
:103F80001702882389F30E943A19882369F30E9453
:103F90002020EACF9C01DA01892F992783309105EF
:103FA000C1F068F48130910509F445C0029761F4CD
:103FB0008DE690E029E633E02D933C93089581321D
:103FC0009105E1F0829739F190E080E030E020E067
:103FD000F3CFC9019927213059F08230910559F06A
:103FE000E5E6F3E0892B81F7849190E09F01E4CF2F
:103FF000EDE4F3E0F9CFE9E3F3E0F6CF643020F746
:10400000E62FF0E0EE0FFF1FEE5DFE4F20813181C5
:1040100089E090E0D1CF6430B8F670E0FB01EE0F9C
:10402000FF1FE65EFE4F208131816A5E7E4FFB01FD
:10403000808190E0C1CF82E190E026ED33E0BCCFFB
:1040400080E189BD82E189BD09B400FEFDCF809188
:10405000D8008F7D8093D8008091E00082608093AB
:10406000E0008091E00081FDFCCF0895AF92BF9207
:10407000CF92DF92FF920F931F93CF93DF936C0148
:10408000EB018A010E948D21F82E811123C00115B8
:10409000110539F0F80180819181C81BD90BC80E38
:1040A000D91EB12CA12C2097A9F08091E80085FDA4
:1040B00022C08091E8008E778093E80001151105F9
:1040C000A1F0F80180819181A80EB91EB182A08271
:1040D00085E0F82E8F2DDF91CF911F910F91FF90EA
:1040E000DF90CF90BF90AF9008950E948D218823DC
:1040F000D1F2F82EEFCFF60181916F018093F1009C
:104100002197FFEFAF1ABF0ACECFFC01CB01209160
:104110002002309121022617370790F0009729F4EA
:104120002091E8002E772093E80040E0009751F4BA
:10413000411108C08091E80082FF31C080E00895FD
:10414000C901F3CF209119022223A9F12530A9F149
:104150002091E80023FD2DC02091E80022FDEACF48
:104160002091E80020FFE2CF3091F3002091F2008F
:10417000009719F02830310558F041E0283031051A
:1041800009F040E02091E8002E772093E800CECFA0
:1041900041914093F10001972F5F3F4FE9CF80910C
:1041A0001902882341F0853041F08091E80083FFB7
:1041B000C1CF81E0089582E0089583E00895FC0175
:1041C000CB0120912002309121022617370790F071
:1041D000009729F42091E8002E772093E80040E032
:1041E000009751F4411108C08091E80082FF32C06D
:1041F00080E00895C901F3CF209119022223B1F183
:104200002530B1F12091E80023FD2EC02091E80077
:1042100022FDEACF2091E80020FFE2CF3091F300A9
:104220002091F200009719F02830310558F041E054
:104230002830310509F040E02091E8002E772093E6
:10424000E800CECF44914093F100319601972F5F63
:104250003F4FE8CF80911902882341F0853041F02B
:104260008091E80083FFC0CF81E0089582E0089547
:1042700083E00895982F973028F08F708093E9009D
:1042800081E008959093E900242F762F50E098174D
:1042900031F07091EC002091ED005091F00021FD83
:1042A00002C09F5FE8CF3091EB003E7F3093EB0080
:1042B0003091ED003D7F3093ED003091EB003160A7
:1042C0003093EB007093EC002093ED005093F000DE
:1042D0002091EE0027FDE5CF80E0089580911A023D
:1042E00087FF13C08091E80082FF06C08091E8003C
:1042F0008B778093E80004C0809119028111F2CF7E
:104300000895809119028823D9F38091E80080FFF5
:10431000F8CF8091E8008E77ECCF2091E4003091C7
:10432000E50095E6A9012091EC00822F817020FF25
:1043300006C08091E80080FF06C080E008952091CB
:10434000E80022FD1AC080911902882389F0853087
:1043500089F08091EB0085FD0FC02091E400309141
:10436000E50042175307F9F29150E1F684E0089511
:1043700082E0089583E0089581E008950E942C2250
:104380000E943422E0EEF0E0808181608083E8EDDD
:10439000F0E080818F77808319BCA7EDB0E08C912D
:1043A0008E7F8C9380818F7E808310921802089577
:1043B0000F931F93CF93DF930E942C220E943422ED
:1043C000C8EDD0E088818F77888388818068888372
:1043D00088818F7D888319BC109219021092150272
:1043E000109217021092160200EE10E0F801808180
:1043F0008B7F808388818160888342E060E080E0F9
:104400000E943A21E1EEF0E080818E7F8083E2EE2F
:10441000F0E0808181608083808188608083F80102
:1044200080818E7F8083888180618883DF91CF91B6
:104430001F910F910895E8EDF0E080818F7E8083D9
:10444000E7EDF0E080818160808384E082BF81E0DD
:10445000809318020C94D821E8EDF0E080818E7FE3
:1044600080831092E20008951092DA001092E10029
:1044700008951F920F920FB60F9211242F933F931E
:104480004F935F936F937F938F939F93AF93BF935C
:10449000EF93FF938091E10082FF0BC08091E200D7
:1044A00082FF07C08091E1008B7F8093E1000E9432
:1044B0009A248091DA0080FF19C08091D80080FF93
:1044C00015C08091DA008E7F8093DA008091D90048
:1044D00080FF94C080E189BD82E189BD09B400FEFE
:1044E000FDCF81E0809319020E94B71E8091E10008
:1044F00080FF19C08091E20080FF15C08091E2002A
:104500008E7F8093E2008091E20080618093E200E0
:104510008091D80080628093D80019BC85E0809398
:1045200019020E94C91E8091E10084FF29C0809178
:10453000E20084FF25C080E189BD82E189BD09B424
:1045400000FEFDCF8091D8008F7D8093D8008091B0
:10455000E1008F7E8093E1008091E2008F7E809366
:10456000E2008091E20081608093E2008091150278
:10457000882309F449C084E0809319020E94CA1E6E
:104580008091E10083FF29C08091E20083FF25C074
:104590008091E100877F8093E10082E0809319029F
:1045A000109215028091E1008E7F8093E10080914E
:1045B000E2008E7F8093E2008091E2008061809330
:1045C000E20042E060E080E00E943A218091F00049
:1045D00088608093F0000E94C81EFF91EF91BF9108
:1045E000AF919F918F917F916F915F914F913F918B
:1045F0002F910F900FBE0F901F90189519BC10921D
:1046000019020E94C51E72CF8091E30087FD02C08F
:1046100081E0B2CF83E0B0CF1F920F920FB60F921E
:1046200011242F933F934F935F936F937F938F93B7
:104630009F93AF93BF93CF93DF93EF93FF93D0916B
:10464000E900DF708091EC00C82FC17080FDC0E8E8
:104650001092E9008091F000877F8093F0007894B9
:104660000E9450231092E9008091F00088608093AE
:10467000F000CD2BCF70C093E900FF91EF91DF9157
:10468000CF91BF91AF919F918F917F916F915F91EA
:104690004F913F912F910F900FBE0F901F90189543
:1046A0001F93CF93DF93CDB7DEB7AA970FB6F894D9
:1046B000DEBF0FBECDBF8AE192E0FC0101962091E2
:1046C000F100208322E082329207B9F70E94E01EB7
:1046D0008091E80083FF16C180911A0290911B021D
:1046E0009A3008F00FC1E92FF0E0E657F94D0C942D
:1046F0000F26803881F0823809F004C180911E02B3
:104700008F708093E9008091EB0085FB882780F90A
:104710001092E90006C08091160290911702911143
:1047200082609091E800977F9093E8008093F10079
:104730001092F1008091E8008E77E0C0882309F4A0
:10474000CEC0823009F0DEC080911C028111D1C040
:1047500080911E028F7009F4D5C08093E9002091EA
:10476000EB0020FFC6C0933031F48091EB008062F3
:104770008093EB00BEC09091EB0090619093EB00B2
:1047800021E030E001C0220F8A95EAF72093EA0089
:104790001092EA008091EB008860EACF8111B2C0EC
:1047A00010911C021F778091E3008078812B809309
:1047B000E3008091E800877F8093E8000E946E21EB
:1047C0008091E80080FFFCCF8091E30080688093B7
:1047D000E30082E0111183E08093190293C08058B6
:1047E000823008F08FC080911C0290911D028C3D98
:1047F00023E09207A1F583E08A838AE289834FB799
:10480000F894DE01139620E03EE051E2E32FF0E061
:1048100050935700E49120FF03C0E295EF703F5F93
:10482000EF708E2F90E0EA30C0F0C7968D939D9385
:104830002F5F243159F74FBF8091E800877F809325
:10484000E8006AE270E0CE0101960E948520809126
:10485000E8008B778093E80055C0C096E7CFAE01A3
:104860004F5F5F4F60911E020E94CA1FBC01892BDF
:1048700009F448C08091E800877F8093E80089812F
:104880009A810E94DF20E3CF8038E1F58091E80033
:10489000877F8093E800809115028093F1004ACFD2
:1048A000811130C090911C02923060F58091E80037
:1048B000877F8093E800909315020E946E2180917B
:1048C0001502882311F084E005C08091E30087FD84
:1048D000FACF81E0809319020E94CC1E13C0809110
:1048E0001C02813079F481E0933009F080E08093FC
:1048F00017021092E9008091E800877F8093E8001A
:104900000E946E218091E80083FF0AC08091E80038
:10491000877F8093E8008091EB0080628093EB00BA
:10492000AA960FB6F894DEBF0FBECDBFDF91CF9130
:104930001F9108950895CF93809119028823A1F0C3
:10494000C091E900CF709091EC00892F817090FDAB
:1049500080E8C82B1092E9008091E80083FD0E9456
:104960005023CF70C093E900CF9108950E94BD24D9
:104970006894B1110C944C2508950E94312588F05B
:104980009F5798F0B92F9927B751B0F0E1F0660F13
:10499000771F881F991F1AF0BA95C9F714C0B13054
:1049A00091F00E944B25B1E008950C944B25672FA0
:1049B000782F8827B85F39F0B93FCCF38695779583
:1049C0006795B395D9F73EF490958095709561956C
:1049D0007F4F8F4F9F4F0895E89409C097FB3EF497
:1049E00090958095709561957F4F8F4F9F4F99233C
:1049F000A9F0F92F96E9BB279395F69587957795BA
:104A00006795B795F111F8CFFAF4BB0F11F460FF79
:104A10001BC06F5F7F4F8F4F9F4F16C0882311F0D1
:104A200096E911C0772321F09EE8872F762F05C0E5
:104A3000662371F096E8862F70E060E02AF09A9580
:104A4000660F771F881FDAF7880F9695879597F975
:104A5000089557FD9058440F551F59F05F3F71F06E
:104A60004795880F97FB991F61F09F3F79F08795D5
:104A70000895121613061406551FF2CF4695F1DF5E
:104A800008C0161617061806991FF1CF86957105EE
:104A9000610508940895E894BB2766277727CB0122
:104AA00097F908950E9465250C94D6250E94C82583
:104AB00038F00E94CF2520F0952311F00C94BF25EB
:104AC0000C94C52511240C944C250E94292570F3C3
:104AD000959FC1F3950F50E0551F629FF001729FA3
:104AE000BB27F00DB11D639FAA27F00DB11DAA1FB2
:104AF000649F6627B00DA11D661F829F2227B00DFF
:104B0000A11D621F739FB00DA11D621F839FA00D89
:104B1000611D221F749F3327A00D611D231F849FD9
:104B2000600D211D822F762F6A2F11249F57504030
:104B30009AF0F1F088234AF0EE0FFF1FBB1F661FAB
:104B4000771F881F91505040A9F79E3F510580F074
:104B50000C94BF250C944C255F3FE4F3983ED4F3AE
:104B6000869577956795B795F795E7959F5FC1F718
:104B7000FE2B880F911D9695879597F9089597F9C3
:104B80009F6780E870E060E008959FEF80EC0895F3
:104B900000240A941616170618060906089500241C
:104BA0000A9412161306140605060895092E039496
:104BB000000C11F4882352F0BB0F40F4BF2B11F40A
:104BC00060FF04C06F5F7F4F8F4F9F4F0895AA1BF8
:104BD000BB1B51E107C0AA1FBB1FA617B70710F0E8
:104BE000A61BB70B881F991F5A95A9F7809590951A
:104BF000BC01CD01089597FB072E16F4009407D051
:104C000077FD09D00E94E72507FC05D03EF490957A
:104C100081959F4F0895709561957F4F0895EE0F90
:104C2000FF1F0590F491E02D0994F999FECF92BDF4
:104C300081BDF89A992780B50895A6E1B0E044E0D7
:104C400050E00C944F26A8E1B0E042E050E00C9414
:104C50004F26262FF999FECF92BD81BDF89A019774
:104C600000B4021639F01FBA20BD0FB6F894FA9AB4
:104C7000F99A0FBE08950396272F0E942A260E94B4
:104C80002926252F0E942A26242F0C942A260196B5
:104C9000272F0E942A260C942926DC01CB01FC0137
:104CA000F999FECF06C0F2BDE1BDF89A319600B485
:104CB0000D9241505040B8F70895F894FFCF7A0311
:104CC0007F03840389038E0393039803F003150481
:104CD0009D03A903AD03B103B503B903BD03C1032C
:104CE000C503C903CD03D103D503D903DD03E10314
:104CF000E503E9034E0F4E0FA60FA60FEA0F0610AD
:104D00007E0F7E0F11107E0FD910D91044117E0F27
:104D10007E0F4D1179239E2382249E238224CE234D
:084D2000EF23822444245024F7
:104D2800FFAB012808140A321ED41D641E411E0A56
:104D38001ED71D013536404D3639A40457042104C9
:0A4D4800E8037B039403AD03C603E8
:00000001FF
